:020000040800F2
:10000000A005002049010008791E0008911400088D
:10001000DD1D00087D0D000891260008000000008D
:10002000000000000000000000000000E9200008BF
:10003000A10F000800000000E11E0008ED210008EB
:100040006301000863010008630100086301000800
:1000500063010008630100086301000863010008F0
:1000600063010008630100086301000863010008E0
:1000700063010008630100086301000863010008D0
:10008000630100086301000863010008000000002C
:1000900000000000000000000000000063010008F4
:1000A00063010008412200086301000863010008A1
:1000B000FD220008630100080D2300086301000809
:1000C0006301000863010008630100086301000880
:1000D00063010008A923000863010008D923000870
:1000E0006301000863010008630100086301000860
:1000F0006301000863010008000000000000000028
:100100000000000000000000630100086301000817
:10011000630100086301000863010008630100082F
:10012000630100086301000863010008630100081F
:1001300063010008DFF80CD000F084FC00480047A1
:100140006D410008A005002006488047064800478A
:10015000FEE7FEE7FEE7FEE7FEE7FEE7FEE7FEE777
:10016000FEE7FEE7F1210008350100082DE9F04126
:1001700000242546002905DA01240027D0EB0700DA
:1001800067EB0101002B05DA0027D2EB07020125FE
:1001900067EB030300F05FFB86460E4617469C465E
:1001A000AC4204D00025D0EB050E65EB010624B16E
:1001B0000020D2EB000760EB030C704631463A4654
:1001C0006346BDE8F081D2B201E000F8012B491E80
:1001D000FBD270470022F6E710B513460A460446E4
:1001E0001946FFF7F0FF204610BD30B50446002049
:1001F000034600E05B1C934203D2E05CCD5C401BF5
:10020000F8D030BDF0B480EA0102D40F4200B2EB66
:10021000410F02D20246084611464A0042D0C30DA1
:10022000DDB2C1F3C752AD1A202D35DAC1F3160184
:1002300041F4000204B15242C5F1200602FA06F16F
:100240002A411044B3EBD05F23D0C4B1012DA0EB01
:10025000C35009DCF0BC4FF0004202EAC35200F583
:100260000000DBB200F062BB400000F1807000EBE8
:10027000C350A0F1807040EAD170490009E04908FC
:1002800041EAC071A0EBC35000F50000400800EB4C
:10029000C350F0BC00F041BB6142012202EB4101BE
:1002A000001BF6E7F0BC704781F00041AAE780F040
:1002B0000040A7E780EA010210B502F000434000C9
:1002C00026D04A0023D04FEA106101EB1261C0F33F
:1002D0005600C2F3560240F4000042F40002A0FBB4
:1002E0000220A1F17F014FEA0040140401D000F187
:1002F000010050EA124001D44000491EC2B20C066F
:1003000004EBD010401C4008802A02D003E00020FB
:1003100010BD20F00100002900DA0020184310BDB4
:1003200030B480EA010202F0004530F0004221F0D2
:10033000004015D0A0B1C0F3C753C2F3C754C2F3F5
:100340001601C0F31600E41A41F4000140F4000263
:100350007D34914201D3641C00E04900002C02DA94
:1003600030BC002070474FF400000023914201D3BD
:10037000891A034340084FEA4101F7D151B1914234
:1003800002D14FF0004105E002D24FF0010101E03F
:100390006FF0010103EBC450284430BC00F0BDBA3B
:1003A000420005D0C0F3C7525242914201DC002006
:1003B000704700EBC15070472DE9FE4F804681EA3F
:1003C0000300C00F0C46009021F0004123F00045CF
:1003D000B8EB0200A94105D24046214690461C4692
:1003E0000B46024623F00040104304D1404621460C
:1003F00003B0BDE8F08F270DC7F30A00C3F30A511D
:100400000290401A0190402866DAC3F3130040F4CA
:10041000801B0098924620B10023D2EB030A63EBC5
:100420000B0B01985946C0F14002504600F044FAC7
:1004300006460D4650465946019A00F05CFA10EB0C
:1004400008006141002487EA115284EAE7731A43E5
:100450003BD0009A3AB3019A012A4FEA075210DCC6
:10046000001B61EB02014FF0004202EA0752CDE9A6
:100470000042001C41F5801132462B4600F090FAF4
:10048000B6E7001B61EB0201001C41F58013001868
:100490005B412018A2F5001747EB030140EAD57035
:1004A000B6196D4111E06D084FEA360645EAC07590
:1004B0004FEA0752001B61EB0201001C41F580115D
:1004C00049084FEA30000019514132462B4603B02B
:1004D000BDE8F04F00F057BA009801224000002319
:1004E000D0EB020263EBE073009821464FEAE07420
:1004F000B8EB000061EB0401E9E783F000435BE740
:1005000081F0004158E72DE9FE4F81EA030404F031
:10051000004421F0004100944FF0000B23F0004311
:1005200050EA010402D052EA030404D1002001463B
:1005300003B0BDE8F08FC3F30A54C1F30A552C444D
:10054000A4F2F3340194A0FB0254C1F3130141F46B
:100550008011C3F3130343F4801301FB024400FB37
:10056000034E840A970A44EA815447EA8357A4FB5E
:10057000076802958D0A05FB07854FEA932C04FB5B
:100580000C542705029D4FEA065847EA1637B5EB8B
:1005900008056EEB070C870E920E47EA811742EAB8
:1005A0008312A7FB0201B6EB0B0164EB00042B0DD9
:1005B00043EA0C335E1844EB1C50DA465146E7FB25
:1005C0000201C5F313044FEA0B3343EA14534FEA15
:1005D0000432019C43EA0603A4F10C040294009C3B
:1005E000CDE900B400F0DCF9A2E72DE9F04D81EA95
:1005F000030404F0004B21F0004514464FF0000ABC
:1006000023F0004150EA050220D054EA01021DD037
:10061000C5F30A570246C5F31303C1F31300C1F330
:100620000A5640F4801543F48013A7EB0608101B0C
:10063000D64608F2FD3873EB050002D308F1010835
:1006400001E092185B41B8F1000F03DA0020014687
:10065000BDE8F08D00204FF48011064684460EE080
:10066000171B73EB050705D3121B63EB050306434A
:100670004CEA010C49084FEA300092185B4150EAFD
:100680000107EDD152EA030012D082EA040083EAA6
:100690000501084303D100224FF0004308E0101B7E
:1006A000AB4102D20122002302E06FF0010253109D
:1006B0001AEB06004CEB085110EB0A0041EB0B0162
:1006C000BDE8F04D00F05FB970B521F00043034381
:1006D0000CD0C1F30A550024D5EB040564EB0403E8
:1006E000D617AD1AB34102DB0020014670BD2018B9
:1006F00041EB025170BDC10F80EAE0700844CA07A7
:100700009623002100F012B996230022114600F032
:100710000DB90EB5C10F80EAE0700844CA07002188
:1007200040F233438DE80E000A460B4600F038F9DC
:1007300003B000BD00F0004220F00040C10DC0F346
:10074000160040F400007F2901DA00207047962946
:1007500003DCC1F19601C84001E096398840002AC7
:10076000F4D04042704720F00040C10DC0F31600A5
:1007700040F400007F2901DA00207047962903DC4D
:10078000C1F19601C840704796398840704770B5EE
:10079000C1F30A5201F000450024C1F3130140F2F5
:1007A000FF3341F480119A4201DA002070BD40F21B
:1007B00033439A42A2F2334203DC524200F08BF8F8
:1007C00000E090402C43F1D0404270BD00F0004268
:1007D00030F000400AD0C10D01F56071C0F3160081
:1007E00042EA0151C2084007114370470020014608
:1007F000704701F0004330B421F0004150EA01029B
:1008000006D00A0DA2F56072C1F31301002A02DCC2
:1008100030BC00207047440F44EAC104C100E01816
:1008200030BC00EBC25000F078B830B50B46014642
:1008300000202022012409E021FA02F59D4205D37F
:1008400003FA02F5491B04FA02F52844151EA2F129
:100850000102F1DC30BD2DE9F05F05460020924633
:100860009B4688460646814640241BE02846414672
:100870004746224600F02FF853465A46C01A914187
:1008800010D311461846224600F016F82D1A67EBD1
:1008900001084F4622460120002100F00DF817EB19
:1008A00000094E41201EA4F10104DFDC4846314618
:1008B0002A464346BDE8F09F202A04DB203A00FA8E
:1008C00002F1002070479140C2F1200320FA03F3A7
:1008D000194390407047202A04DB203A21FA02F0A5
:1008E0000021704721FA02F3D040C2F1200291406A
:1008F000084319467047202A06DBCB17203A41FAF5
:1009000002F043EAE07306E041FA02F3D040C2F19C
:10091000200291400843194670470029A8BF70473C
:10092000401C490008BF20F00100704710B4B0FA25
:1009300080FC00FA0CF050EA010404BF10BC7047C0
:1009400049B1CCF1200421FA04F411FA0CF118BFDA
:10095000012121430843A3EB0C01CB1D0106000A32
:10096000002BBEBF002010BC704700EBC3501044EA
:100970000029A4BF10BC7047401C490008BF20F0EC
:10098000010010BC704710B5002B08DA401C41F183
:10099000000192185B411A4301D120F0010010BD03
:1009A0002DE9F04D92469B4611B1B1FA81F202E079
:1009B000B0FA80F220329046FFF77EFF04460F46E1
:1009C00040EA0A0041EA0B0153465A46084303D164
:1009D00020463946BDE8F08D114653EA010015D096
:1009E000C8F140025046FFF776FF05460E465046D6
:1009F00059464246FFF760FF084301D0012000E05E
:100A00000020054346EAE0762C4337430A984FEA34
:100A10004453A0EB08004FEAD4240A304FF0000200
:100A200044EA47544FEAD72502D500200146D1E7D2
:100A3000010510196941DDE9084500196941BDE862
:100A4000F04DA0E7064C074D06E0E06840F00103DA
:100A500094E8070098471034AC42F6D3FFF76EFBDA
:100A600058620008786200082DE9F04D00231A460C
:100A70001B1A8A4103DB00200146BDE8F08DC1F35B
:100A80000A52C1F3130141F480154FF0000BD10756
:100A900002D100186D41521E0027044640F2FF119A
:100AA000384601EB620A3E468046024600204FF47B
:100AB0008011FFF710FFC2197141BB1846EB01000E
:100AC000B4EB030C75EB000C04D3E41A65EB0005E2
:100AD00017460E46241908F101006D41804634285E
:100AE000E3DDF91946EB0600091BA84103D24FF0DC
:100AF000FF32134601E0002213461BEB070046EBD2
:100B00000A51BDE8F04DFFF73EBF70B501EB02049E
:100B100010F8015B15F0070301D110F8013B2A1111
:100B200006D110F8012B03E010F8016B01F8016BFE
:100B30005B1EF9D12B0705D40023521E0FD401F8F8
:100B4000013BFAE710F8013B02F10202A1EB0303BB
:100B500003E013F8015B01F8015B521EF9D5A142D5
:100B6000D6D3002070BD0029816802D041F0010178
:100B700001E021F001018160704700000D4910B5CE
:100B8000884202D1012144150AE00B49884202D172
:100B90000121041504E0094988420AD10121CC034E
:100BA000204601F0F1F92046BDE81040002101F097
:100BB000EBB910BD0024014000280140003C014079
:100BC000014600208968490700D501207047C06CA4
:100BD00080B270470246002012680A4200D001200D
:100BE0007047014600208968090700D50120704739
:100BF00010B542680E4B0C791A400B6842EA042289
:100C00001343436083680B4A1340D1E902422243F5
:100C10004C7943EA44031A438260C26A097C22F495
:100C20007002491EC9B242EA0151C16210BD000002
:100C3000FFFEF0FFFDF7F1FF70B5072409290AD97F
:100C4000C568A1F10A0606EB4606B440A543B340C9
:100C50001D43C56007E0056901EB4106B440A543AB
:100C6000B3401D4305611F23072A09D2446B521E5E
:100C700002EB820293409C4391400C43446370BD5D
:100C80000D2A09D2046BD21F02EB820293409C43CF
:100C900091400C43046370BDC46A0D3A02EB8202BA
:100CA00093409C4391400C43C46270BD816841F005
:100CB0000801816070470029816802D041F4A001D9
:100CC00001E021F4A00181607047816841F00401D6
:100CD0008160704730B587B001214FF4057001F095
:100CE00047F94FF4004001F039F90F20ADF8140036
:100CF00000248DF8174005A91D4800F017FAF020D0
:100D0000ADF814008DF8174005A91A4800F00EFA46
:100D1000194D2846FFF732FF4FF46020CDE9020459
:100D200008208DF804408DF8100000948DF80540DF
:100D300069462846FFF75CFF01212846FFF713FFAD
:100D40002846FFF7B3FF2C462046FFF74AFF00284E
:100D5000FAD12046FFF7B9FF2046FFF731FF002800
:100D6000FAD1012002F0AEF900F06AFB07B030BD05
:100D7000001001400008014000240140FEE700008F
:100D800038B5002000906B4601227521682003F0E1
:100D9000BBF830A001F0D2FC9DF80000682809D013
:100DA00035480168354A01F4E06111430160BFF341
:100DB000408FFEE703F096FB002849D1782004F02D
:100DC0004FF810B923A001F0B9FC782003F0BCFA69
:100DD00010B92BA001F0B2FCC82004F001F810B942
:100DE00031A001F0ABFC02F0DFFA10B938A001F03D
:100DF000A5FC4448044603F0E9F80546E01C03F06E
:100E0000E5F845EAC005A01D03F0E0F845EA8010CA
:100E100080B202F07FFC10B93BA001F08FFC40F2E1
:100E2000731002F095F910B941A001F087FCC820B9
:100E300002F0D6FB10B948A001F080FC04F0BAF82B
:100E4000012003F0F3FE002802D14CA001F076FC53
:100E500038BD00006D70755F7365745F73656E7388
:100E60006F7220636F6D706C657465202E2E2E2E50
:100E70002E2E0D0A000000000CED00E00400FA0523
:100E80006D70755F636F6E6669677572655F6669C1
:100E9000666F20636F6D706C657465202E2E2E2E2C
:100EA0002E2E0D0A000000006D70755F7365745F73
:100EB00073616D706C655F7261746520636F6D70D6
:100EC0006C657465202E2E2E2E2E2E0D0A0000002D
:100ED000646D705F6C6F61645F6D6F74696F6E5F7E
:100EE0006472697665725F6669726D77617265209A
:100EF000636F6D706C657465202E2E2E2E2E2E0D58
:100F00000A000000C4000020646D705F7365745FA8
:100F10006F7269656E746174696F6E20636F6D7056
:100F20006C657465202E2E2E2E2E2E0D0A000000CC
:100F3000646D705F656E61626C655F666561747536
:100F4000726520636F6D706C657465202E2E2E2E79
:100F50002E2E0D0A00000000646D705F7365745FD3
:100F60006669666F5F7261746520636F6D706C6532
:100F70007465202E2E2E2E2E2E0D0A006D70755F9C
:100F80007365745F646D705F737461746520636F03
:100F90006D706C657465202E2E2E2E2E2E0D0A007F
:100FA00070470000314810B5C16941F00401C161CA
:100FB000816941F0080181612D48016821F070616B
:100FC0000160016841F000610160016821F0704139
:100FD0000160016841F0804101602648018841F0CC
:100FE00001010180018841F04001018001231E229E
:100FF0000321184600F0C6FE1E4800231C30038063
:101000001C494FF6E750203108801A480C380188F7
:1010100021F440710180018821F0600101801549AF
:101020000C310A8842F001020A800A8842F4807278
:101030000A80104A1432148824F0020414801488A0
:1010400024F0200414800A8842F030020A80094902
:10105000091F0A8842F003020A80064918310B80F2
:10106000018841F00101018010BD00000010024024
:10107000000C01400C0800402A4810B5C16941F03D
:101080000101C161816941F0040181612648016863
:1010900021F00F010160016841F004010160016865
:1010A00021F0F0010160016841F040010160C404D9
:1010B000A08940F00100A081A08940F04000A081FB
:1010C00001231C220321184600F05CFE002020852D
:1010D0004FF6E751A185218821F4407121802188B4
:1010E00021F060012180218B41F001012183218BBE
:1010F00041F480712183218C21F002012184218C13
:1011000021F020012184218B41F0300121832189AC
:1011100041F003012181A084208840F0010020805B
:1011200010BD00000010024000080140F0B5CA7870
:10113000002502F00F03D20601D58A7813430C78FC
:101140004FF00F0E0122ECB1D0F800400F8802FAE8
:1011500005F63740B74211D14FEA850C0EFA0CF76D
:1011600024EA070703FA0CF43C43CF78282F02D077
:10117000482F02D002E0466100E006616D1C082D98
:10118000E4D304600C88FF2C1ED944685FF000068D
:1011900006F1080702FA07F50F882F40AF420FD17A
:1011A0004FEA860C0EFA0CF7BC4303FA0CF73C43EB
:1011B000CF78282F00D14561CF78482F00D1056125
:1011C000761C082EE4D34460F0BD024600209268ED
:1011D0000A4200D0012070474161704701617047A9
:1011E0002DE9F0410F46104D01460026072301224C
:1011F0002846FFF721FD01212846FFF75CFD02216B
:101200002846FFF7E7FC0028F9D0002405E028462F
:10121000FFF7DDFC641C0644E4B2BC42F7D3B6FB26
:10122000F7F080B2BDE8F081002401402DE9F05FC5
:10123000714DDFF8C8A101287ED04621D02000F0F2
:1012400028F904464521D02000F023F904EB0020C2
:10125000FFF75AFA6A4C48212060D02000F019F9B3
:1012600006464721D02000F014F906EB0020FFF7D6
:101270004BFADFF890913C21C9F80000D02000F033
:1012800008F906463B21D02000F003F906EB0020C8
:10129000FFF73AFA5C4E40213060D02000F0F9F8B8
:1012A00007463F21D02000F0F4F807EB0020FFF7BD
:1012B0002BFADFF858B18046CBF800002068B0F177
:1012C0008E4F04DD4FF08F41FEF7EEFF20604F465A
:1012D000D9F800004FF08E49484504DD4FF08F41AA
:1012E000FEF7E2FF38603068B0F18E4F04DD4FF05A
:1012F0008F41FEF7D9FF3060D9464046B8F18E4F96
:1013000005DD4FF08F41FEF7CFFFC9F800002068E0
:1013100080F000413E480160D9F80000FFF756FA1E
:10132000804689463068FFF751FA42464B4601F045
:10133000D7FD0022374B00E01CE0FFF7E4F8364A07
:10134000364BFFF752F9FFF754FA35490646086065
:101350002068FFF73BFA4FF06632324BFFF745F952
:10136000FFF747FA304920600978022922D0032983
:1013700026D02AE000F05EFE2C4804682C609AF823
:10138000000040B92A4890F90000FFF7B4F921465F
:10139000FEF78DFF2860274CB4F90200FFF7ABF988
:1013A0001B490860B4F90400FFF7A5F92249086059
:1013B000BDE8F09F80F00041304600F0F5FA04E00F
:1013C00080F00041304601F07FF99AF800001B4C94
:1013D00010B1012809D00AE0154890F90000FFF784
:1013E0008AF92168FEF763FF00E020682860124850
:1013F00039680160DCE700004C000020010000209B
:10140000280000202C0000202000002024000020C4
:101410005000002000806640F1D4C853FB210940F1
:101420001C0000206666304019000020B400002037
:1014300000000020B800002054000020000100201F
:1014400010B532210420FFF7CBFE0C490880322171
:101450000520FFF7C5FE0A49086032210620FFF784
:10146000BFFEA0F50060FFF754F9064A064BFFF7F0
:10147000BCF8FFF78CF90549088010BD0E0000206C
:10148000480000209A9999999999054002000020F6
:10149000FEE770B50D46044600F0CEF8204600F099
:1014A0009BF800F00DF9284600F096F800F008F9D6
:1014B00000F0C2F8641CE0B200F08EF800F000F911
:1014C000002000F053F8044600F0DEF8204670BD1E
:1014D00070B50B4C0025E5600A48016821F00F014A
:1014E0000160016841F0030101602560012001F005
:1014F000FDFD0120E06001F0F9FDE56070BD000038
:10150000A0012142040801400848816941F004011A
:101510008161074801684FF20F0291430160016841
:1015200043F20302114301607047000000100240C3
:101530000408014070B50B4C0025E5600A480168BD
:1015400021F00F010160016841F0030101600126F3
:101550002660304601F0CAFDE660012001F0C6FDBC
:10156000E56070BDA0012142040801402DE9F0476B
:10157000814617480024016821F00F0101600168CD
:1015800041F008010160134E254627464FF001083F
:10159000C6F8AC71022001F0A9FDC6F8AC81600666
:1015A000040ED6F8200108B1641CE4B2022001F058
:1015B0009DFD6D1CEDB2082DEAD3B9F1000F02D0EC
:1015C000FFF786FF01E0FFF7B5FF2046BDE8F08793
:1015D00004080140000021422DE9F041064614486C
:1015E000016821F00F010160016841F00301016011
:1015F000104C0027C4F8AC713D464FF00108F009CB
:10160000C4F8A0017006060E012001F06FFDC4F8B9
:10161000AC81012001F06AFDC4F8AC71012001F039
:1016200065FD6D1CEDB2082DE9D3BDE8F081000029
:10163000040801400000214270B51148016821F002
:101640000F010160016841F0030101600D4C0120B0
:10165000C4F8A001D4F8201149B1C4F8AC0101F0DC
:1016600045FD0025C4F8A051D4F8200108B10020A0
:1016700070BD012001F03AFDC4F8AC51012070BDED
:1016800004080140000021420B4810B5016821F018
:101690000F010160016841F003010160074C002067
:1016A000E0602060012001F021FD0120E060206069
:1016B000BDE8104001F01ABD04080140A00121421C
:1016C00070B513480024016821F00F010160016822
:1016D00041F0080101600F4D0126C5F8A0613046B8
:1016E00001F004FDC5F8AC6107E0641CE4B2322CE3
:1016F00003D9FFF7C9FF002070BD012001F0F6FCFF
:10170000D5F820010028F0D1C5F8AC01012070BD4A
:10171000040801400000214210B51446FFF7B9FE4D
:101720002070012010BDF8B515461C460E46074630
:101730006A46FFF7F1FF01209DF80010A8400CB1A8
:10174000084301E021EA0000C2B28DF800203146D2
:10175000384600F02BF8F8BD2DE9F84314461D4635
:101760000F4680466A46089EFFF7D6FF00281BD02A
:10177000611CFF20C4F1080200FA01F12A44521E44
:10178000D0400143C5F108008640F2B2C4F1070021
:10179000C2409DF80000084010438DF80000C2B21E
:1017A0003946404600F002F8BDE8F88307B502ABC1
:1017B000012200F001F80EBD2DE9F0411E4615464C
:1017C000884607460024FFF737FF3846FFF704FF37
:1017D000FFF776FF4046FFF7FFFEFFF771FF06E0D9
:1017E000305DFFF7F9FEFFF76BFF641CE4B2AC421B
:1017F000F6D3FFF749FF0120BDE8F0814106074815
:10180000826942F0010282610548426822F0E0628A
:10181000426042680A434260704700000010024084
:101820000000014038B501214FF4907000F0A0FB9A
:101830004FF47E60ADF8000048248DF803406946FF
:101840000648FFF773FC8020ADF800008DF80340D8
:1018500069460348FFF76AFC38BD000000200140DC
:10186000001401402DE9F05F474DDFF820B1484EEC
:10187000484FDFF82481DFF82491494C4FF0010AEA
:1018800010B185F800A001E0287800B38021584607
:10189000FFF79BFC10B34FF400712046FFF795FC57
:1018A000E0B14FF480612046FFF78FFCB0B14FF4F8
:1018B00000612046FFF789FC80B1307870B138783C
:1018C00060B198F8000048B199F8000030B180216B
:1018D0005846FFF77AFC012831D053E031480078B0
:1018E00003284FD30020287080215846FFF76DFC55
:1018F000E0B13078D0B14FF400712046FFF765FCBD
:10190000B8B199F80000A0B14FF480612046FFF70C
:101910005CFC80B1387870B14FF400612046FFF76D
:1019200054FC50B198F8000038B12BE00120BDE81C
:10193000F09F0220FBE70320F9E70420F7E74FF4CC
:1019400000712046FFF741FC01281BD1810220468F
:10195000FFF73BFC012815D1C1022046FFF735FCFB
:1019600001280FD1307801280CD13878012809D10D
:1019700098F80000012805D199F80000012801D14C
:1019800085F800A00020D2E7E40000200014014008
:10199000150000201600002017000020180000206D
:1019A00000200140060000202DE9F34F554C87B080
:1019B000216A04910898FEF777FC61690091FEF7AF
:1019C00079FCA169FEF71EFC04F144050390D5F8EB
:1019D00004A0A0685146FEF767FCD5F80890494678
:1019E000FEF762FC48490860EA6882F000464E60F3
:1019F0008E60E768CF6090460099FEF75BFC29682F
:101A0000FEF700FC834630460099FEF753FC06467D
:101A10005146FEF7F7FB029030464946FEF7F2FBCF
:101A2000824638460099FEF745FC4146FEF7EAFB40
:101A3000814603990798FEF737FC8046606220785C
:101A4000FEF762FE59460190FEF734FC0646A0629E
:101A500051460198FEF72EFCE06205903146019850
:101A6000FEF728FC2169FEF7CDFB074620633946C7
:101A70003046FEF755FC6063009039460598FEF746
:101A80004FFCC4E90E060746DDE90101FEF712FC32
:101A90002064019031460098FEF70CFC5946FEF791
:101AA00006FC2860DDE90001FEF704FC0299FEF760
:101AB000FEFB686031463846FEF7FCFB5146FEF7F8
:101AC000F6FBA86038460199FEF7F4FB4946FEF79D
:101AD000EEFBE86041460098FEF7ECFB0399FEF749
:101AE00091FBA06141463846FEF7E4FB0499FEF7FE
:101AF00089FB014620620898FEF7D6FBE06109B039
:101B0000BDE8F08FE800002090010020F0B56D499D
:101B10000A78521CD2B20A7082427DD16A4A0024ED
:101B20000C701178694D491CCFB2694917700123B7
:101B30000E7868490F2F56D3674F1470D7F8A0C19D
:101B4000BCF1000F07D04FF0000C00BFC7F8A0C1D8
:101B5000022E03D00AE04FF0010CF7E7D1F8B47180
:101B6000BFB10027C1F8B471C5F880315B4FB7F938
:101B7000007017F1140F11DAD1F8B8C1BCF1000FE1
:101B800009D04FF0000C00BFC1F8B8C1C5F88431CE
:101B900008E00127E6E74FF0010CF5E7C1F8B8418E
:101BA000C5F88441142F0ADDD1F8BC712FB100278C
:101BB000C1F8BC71C5F8883105E00127F8E7C1F824
:101BC000BC41C5F88841464F3F6817F5967F08DD50
:101BD000D1F8B0711FB10027C1F8B07103E001273F
:101BE000FAE7C1F8B0413F4F40F6B83ED7F800C021
:101BF0003D4FF44516DAB2F802C00CF1010C1FFAA1
:101C00008CFCA2F802C0BCF5BE7F0BD95480D7F87B
:101C100090C1BCF1000F00E048E00ED04FF0000C86
:101C2000C7F890C1DFF8C4C040F2936EBCF800C0A2
:101C3000F44505D9C7F8884104E04FF0010CEFE7FF
:101C4000C7F88831DFF8A8C0DFF8A8E0DCF800C0EA
:101C5000DEF800E01CEB0E0EDFF89CC0CCF800E0D4
:101C600003D5CEF1000ECCF800E0F446DFF88CE0AE
:101C7000BEF800E0F44502DDC7F88C4101E0C7F88A
:101C80008C31A6B1012E17D0032E0FD15678761CB9
:101C9000F6B25670864209D95470D1F8B40170B1C9
:101CA0005FF00000C1F8B401C5F88031F0BDC1F8A3
:101CB000B441C5F88041F0BDC1F8B431F4E701206A
:101CC000F0E70000060000206C00002000802342A6
:101CD0000A0000200000244200802142020000206F
:101CE0004000002048000020008022420E0000201A
:101CF000380000203C000020100000200C000020D4
:101D000010B5022000F011F8022000F020F80020A9
:101D100000F014F8002000F02FF8002000F026F862
:101D2000BDE81040002000F01BB808B50323009068
:101D300002226B21D020FFF70FFD08BD08B502235A
:101D4000009004221C21D020FFF706FD08BD08B535
:101D50000223009004221B21D020FFF7FDFC08BDC8
:101D6000034601223721D020FFF7DDBC03460522C0
:101D70006A21D020FFF7D7BC034606226B21D02072
:101D8000FFF7D1BC10B51846144600F015F8012035
:101D90004FF0E021202C06D2D1F80021A0400243D0
:101DA000C1F8002110BDD1F80421203CA04002431D
:101DB000C1F8042110BD0000072181430A02054932
:101DC00008684FF6FF031840034B184310430860A0
:101DD000704700000CED00E00000FA05FEE700008F
:101DE000214A10B5D36943F00203D361936943F0EC
:101DF000080393611D4A136823F0FF0313601368FF
:101E000043F0BB031360121D13689BB21360136889
:101E1000174C23431360174A1080101F0180154888
:101E20001038018841F4C0410180018841F060010F
:101E30000180018841F400610180018841F00801BE
:101E40000180001D018841F440510180018841F466
:101E500040710180C11307482C380180018841F08E
:101E60000101018010BD000000100240000C014083
:101E7000000022222C04004070470000F0B50F2122
:101E8000C478027801234FF0E026DCB1124C2468BC
:101E9000457804F4E064C4F5E064240AC4F104075E
:101EA000E1408478BD400C402C4321010B4C11557E
:101EB000007800F01F018B40400906EB8000C0F85D
:101EC0000031F0BD02F01F008340500906EB800096
:101ED000C0F88031F0BD00000CED00E000E400E04F
:101EE0007047000070B516480025164E0078164C55
:101EF00001280AD015480068FEF71CFC2070144821
:101F0000144900880880357070BD134894F900208A
:101F100001230178491CC9B2002A017006DD0A2993
:101F2000F2D30570521E05E0337070BD0A29FCD350
:101F30000570521C50B220700028F5D070BD000012
:101F400030000020010000200000002000010020DF
:101F500002000020040000203C010020034A5168D8
:101F600021F44041014351607047000000100240DD
:101F7000044A0029916901D0014300E08143916145
:101F80007047000000100240044A0029D16801D0C7
:101F9000014300E08143D16070470000001002401F
:101FA00030B520494A6812F00C031F4A03D0042BB5
:101FB00001D0082B22D002604A680F231B4C03EA91
:101FC0001212A35C0268DA4042604B68072505EAFA
:101FD0001323E35C22FA03F383604B6805EAD323FF
:101FE000E35C22FA03F2C2604968032303EA9131F9
:101FF000231F595CB2FBF1F1016130BD4A684B68A7
:1020000002F470124FF0020413F4803F04EB92428A
:1020100002D04B689B0301D5054B00E0024B5A43AD
:10202000C9E700000010024000127A005C000020A6
:1020300000093D002DE9F04188B0294C07A8CDE901
:10204000004004F11E0106AB02AA881F01F0B6F998
:102050002088C00540D50298FEF74DFB6FF01D06A5
:102060003146FEF79DF9804660600398FEF743FB1A
:102070003146FEF795F90746A0600498FEF73BFB52
:102080003146FEF78DF90546E0600598FEF733FB13
:102090003146FEF785F90646206101214046FEF7EC
:1020A0007FF92946FEF706F905464FF040413846CC
:1020B000FEF700F93146FEF7FDF82946FEF7A2F8D3
:1020C000FEF784FB00F0BCFC4FF06632054BFEF7D8
:1020D0001AFAFEF78EFB606108B0BDE8F0810000DF
:1020E000A000002066A64C40704700000CB50021FF
:1020F000264801910091026842F4803202604FF458
:10210000A063026802F400320092019A521C01920C
:10211000009A12B9019A9A42F3D10268920333D518
:10212000012100911A490A6842F010020A600A6807
:1021300022F003020A600A6842F002020A60416863
:10214000416041684160416841F48061416041689B
:1021500021F47C114160416841F4E811416001685B
:1021600041F08071016001688901FCD5416821F06E
:1021700003014160416841F0020141604168C1F3DF
:1021800081010229FAD10CBD00910CBD0010024062
:10219000002002402DE9F04100250126114C0F4698
:1021A000002804DAC4F8BC61C4F8B85103E0C4F8EC
:1021B000BC51C4F8B86102F0D9FE0B490880002F69
:1021C00004DAC4F8B451C4F8B06103E0C4F8B461EF
:1021D000C4F8B051384602F0C9FE0349091F08800F
:1021E000BDE8F081008021424004004070470000BB
:1021F0000F4810B5016841F00101016041680D4AC6
:102200001140416001680C4A11400160016821F4ED
:1022100080210160416821F4FE0141604FF41F01FB
:102220008160FFF763FF05494FF00060086010BD53
:10223000001002400000FFF8FFFFF6FE08ED00E08E
:102240002DE9F04122480188C9073FD0018821F0DB
:102250000101018002F08EFE0420FFF757FCFFF71A
:10226000EFF801F0D7FE1B480078FEF7DFFF1A48B1
:102270001A4D0168286800F0F3FE194C194E1A4FE8
:1022800020633168386803F0ABF860631748316841
:102290000268386802F034FFA063D4E90C121144DC
:1022A000134C0A1A134E08442260306000F0F2F911
:1022B00011480168286800F057F818B9316820689B
:1022C000FFF768FFBDE8F041FFF70CBEBDE8F08105
:1022D000102C014019000020500000204C0000206C
:1022E0003C0100203C000020380000205400002069
:1022F0004000002044000020480000204FF08040B3
:10230000018A018A21F00101018270470348018896
:10231000018821F001010180704700001008004091
:102320000F4A936943F4006393610E4A1080101FB3
:1023300001800C482038018841F0010101800188AA
:1023400041F04001018007482C38018841F001012B
:1023500001800123192203211846FFF713BD000055
:10236000001002402C2C01400A4988420BD80A492F
:10237000884208DC09480078012804D00848007821
:1023800008B100207047074A012000211180121F68
:1023900011807047000020C2000020421A00002077
:1023A000140000204004004010B540F225510948B7
:1023B00000F0DDF800280BD003F006F8A52807D1BF
:1023C00003F002F85A2803D1BDE8104002F0FCBF28
:1023D00010BD0000003801402DE9F0475148008849
:1023E000800672D54F48001D02884F480A2A00F126
:1023F0000C01826000DA0A704B4B0F781B1D03F151
:10240000080493F800C06678A5780020E478674552
:102410000AD193F801C0664506D193F802C065451C
:1024200002D1DB789C420DD03F4B93F800C067454A
:1024300011D15F78BE420ED19E78B5420BD1DB78C8
:102440009C4208D1394B1C7834B300241C700870AE
:1024500048708870C870364C364D374E374FDFF8AD
:10246000E0C0DFF8E080DFF8E090DFF8E0A00123D3
:10247000A2B1052A1FD0062A1FD0082A20D0072A79
:1024800024D0092A26D0012A30D0022A31D0032AAA
:1024900032D0042A33D034E00124D7E720702870EA
:1024A000307038708CF8003088F8003089F80030CF
:1024B0008AF8003025E0237012E020702B7010E0C5
:1024C0002070287030703B701BE028E0207028706E
:1024D000337007E01E4A137833B100231370207065
:1024E0002870307038700CE00123F7E78CF800009A
:1024F00007E088F8000004E089F8000001E08AF8AD
:1025000000008879C8714879887108794871C8785D
:1025100008718878C8704878887008784870BDE875
:10252000F087000000480040D00000201A00002082
:102530003100002032000020330000203400002051
:1025400015000020160000201700002018000020B1
:1025500008000020C943018070470029818902D00A
:1025600041F4005101E021F400518181704730B500
:1025700001F01F0201240025C1F3421304FA02F204
:10258000012B0FD0022B0FD0838A4FEA1121008834
:10259000134204FA01F400EA040001D000B101255D
:1025A000284630BD8389F0E7038AEEE710B5C1F312
:1025B000421301F01F040121A140012B07D0022B7F
:1025C00007D01430002A026805D00A4304E00C301A
:1025D000F8E71030F6E78A43026010BD30B50446D4
:1025E000008A85B00D464CF6FF710840E98801432A
:1025F0002182A1894EF6F3100140A8882A89104350
:102600006A890A431043A081A08A4FF6FF4108401F
:10261000A9890143A1826846FFF7C2FC1B48844296
:1026200001D1039800E00298A1890904002900EB78
:10263000C00101EB0010296802DA4FEA410101E014
:102640004FEA8101B0FBF1F06422B0FBF2F14FEAF6
:1026500001114FEA11136FF018056B4300EB830073
:10266000A3891D044FF0320306D503EBC000B0FB75
:10267000F2F000F0070005E003EB0010B0FBF2F011
:1026800000F00F000843208105B030BD0038014044
:10269000FEE700000A4940F26C7042420B68934228
:1026A00001DA0A6002E0834200DD086005490B6838
:1026B000934201DA0A6070478342FCDD086070478C
:1026C00040000020440000202DE9F04180460846EB
:1026D000FEF77CF8164A174BFDF715FF164D064618
:1026E0000C46A869FEF772F832462346FDF764FEF1
:1026F0000C46696807460E464FF07E50FDF7D4FD44
:10270000FEF764F83A462346FDF7FDFE07460C4601
:1027100031464046FDF7CEFDFEF758F83A462346CF
:10272000FDF74AFEFEF765F8A861BDE8F0810000FC
:102730007B14AE47E17A743FE80000200FB4054BEC
:1027400010B503A9044A029800F090F810BC5DF897
:1027500014FB00005D3A000878010020490050EAAF
:10276000C12018BF04204A0D18BF40F0010040F2FC
:10277000FF72B2EB515F08BF40F00200012808BFB2
:10278000052070472DE9F0414F1E00EBC7010446BC
:10279000D1E9000115461E4637F006020DD02A4643
:1027A0003346FDF7B0FE7F1E04EBC703D3E90023D9
:1027B000FDF702FE37F00602F1D1022F25D0042FDB
:1027C00013D0062F18BFBDE8F0812A463346FDF727
:1027D0009AFED4E90A23FDF7EFFD2A463346FDF7BA
:1027E00092FED4E90823FDF7E7FD2A463346FDF7BC
:1027F0008AFED4E90623FDF7DFFD2A463346FDF7BE
:1028000082FED4E90423FDF7D7FD2A463346FDF7BF
:102810007AFED4E90223FDF7CFFD2A463346FDF7C1
:1028200072FED4E90023BDE8F041FDF7C5BD00000C
:10283000024A00201107FDF747BF000001FDFFFF1E
:1028400002E008C8121F08C1002AFAD17047704779
:10285000002001E001C1121F002AFBD170470000D7
:1028600001490860704700007C0100202DE9FF4FFE
:1028700089B09B460446002597E0252833D10027E0
:10288000641C4E49B84601222378203B02FA03F02B
:10289000084202D00743641CF6E720782E2819D19D
:1028A00014F8010F47F004072A280ED06FF02F020A
:1028B0002078A0F1300109290CD808EB880102EB3F
:1028C000410100EB0108641CF2E70A98641C50F80F
:1028D000048B0A90207800286BD0642808D06928DF
:1028E00006D0752820D05A460B9990476D1C5BE0A6
:1028F0000A994FF00A0901C90A91002804DAC0F1C7
:1029000000004FF02D0102E0390504D52B218DF890
:102910002010012103E0F90704D02021F7E78A46BF
:1029200008AE0EE00021FAE70A994FF00A0901C942
:102930000A91F7E74946FDF778FF01F1300106F803
:10294000011D0028F6D1ADEB060000F12009780743
:1029500001D44FF00108C84502DDA8EB090000E0F2
:1029600000208046002706E008A85A46C05D0B9963
:1029700090476D1C7F1C5745F6DB04E030205A461B
:102980000B9990476D1CB8F10001A8F10108F5DC26
:1029900005E016F8010B5A460B9990476D1CB9F1EA
:1029A0000001A9F10109F4DC641C207800287FF4FF
:1029B00064AF0DB02846BDE8F08F00000928010083
:1029C0002DE9FE4F07460E460025684601F050F8F7
:1029D00000246FF00F0AE8464FF0010957F8240071
:1029E00056F82410401A00D54042FDF784FE5146A7
:1029F000FDF7D6FC58F8241011F0FF4F0BD0FDF76F
:102A00008FFC4FF07E51FDF74FFC0A4920F000404B
:102A1000884205DC07E0084908440849884202D397
:102A200009FA04F00543641C032CD7DB2846BDE8F3
:102A3000FE8F0000295C0F3E666666C19A99D90038
:102A40002DE9F04D904F21F0004A86B005460C4626
:102A5000BA4530DBAAEB070028430CD08B488245EF
:102A600001DC1CD1DDB106B02846BDE8F04D4FF0C9
:102A70000102FDF729BE864A864B2846FDF743FD35
:102A800007460E46844A854B28462146FDF73BFD06
:102A900006B03A463346BDE8F04DFDF78DBC012047
:102AA000FFF7DEFE06B00022BDE8F04D13461046EB
:102AB0001146FDF79ABD7A48824542DABAF1795F4C
:102AC0000BDA2846FFF74AFE042808BFFFF7B0FEDE
:102AD000284606B02146BDE8F08D2A460B46104632
:102AE000FDF711FD834602466E480E460B46062151
:102AF0007844FFF747FE5A463346FDF704FD80460B
:102B000069488A465A46334604217844FFF73AFE1C
:102B10005A463346FDF7F7FC00223B46FDF74CFCD6
:102B200002460B4640465146FDF75FFD2A462346C6
:102B3000FDF7E9FC06B02A462346BDE8F04DFDF757
:102B40003BBC284624F0004100223D463B46FDF7B1
:102B5000D7FC4FF0FF32FDF7B7FD0646024653485B
:102B60000F460B4606217844FFF70CFE32463B46E3
:102B7000FDF7C9FCCDE900014D4832463B46042132
:102B80007844FFF7FFFD32463B46FDF7BCFC0022D0
:102B90002B46FDF711FC834602913046394602F080
:102BA00087FA804643480D46504517DCDDE90001B1
:102BB0005A46029BFDF719FD42462B46FDF7A3FC42
:102BC00042462B46FDF7F8FB0122FDF77DFD304A1A
:102BD000304BFDF792FC304A304B4CE04FF0000A8E
:102BE00052460B464046FDF7E7FBCDE9031052463F
:102BF0002B4610461946FDF786FC32463B46FDF74C
:102C00007FFCDDE90332FDF7F0FC06460F46DDE907
:102C100000015A46029BFDF7E8FC83460091012221
:102C200030463946FDF750FD194A1A4BFDF768FC4E
:102C300006460F46012240462946FDF745FD5A4605
:102C4000009BFDF760FC32463B46FDF756FC07460D
:102C50000E46012250462946FDF736FD0E4DDFF89F
:102C600058802A464346FDF74BFC3A463346FDF76B
:102C700047FC2A464346FDF743FC002CD8BF81F0B1
:102C8000004106B0BDE8F08D0000F03F0000F07F8D
:102C9000075C143326A6913C182D4454FB21F93FC0
:102CA0000000E03F743600008A360000FE35000068
:102CB000143600003333EF3FFB21E93F2DE9F84F95
:102CC00004460D4621F0004000917449884213DB10
:102CD0007349884201DC08D13CB120462946BDE851
:102CE000F84F4FF00102FDF7EFBC6E48002DCCBF4E
:102CF0006D496E49BDE8F88F6D49884211DA6D491A
:102D00008842A8BF4FF0FF366DDA20462946FFF70C
:102D100025FD042808BFFFF78BFD20462946BDE8A6
:102D2000F88F6549654F25F00045884233DA6449DC
:102D3000884219DA002632464FF080432046294661
:102D4000FDF73AFB80468A46012220462946FDF7D8
:102D5000BBFC00223B46FDF7D0FB42465346FDF745
:102D600044FC04460D463EE001260022BA463B469E
:102D700020462946FDF720FB80460F460022534699
:102D800020462946FDF7B9FB42463B46FDF72DFCA0
:102D900004460D4627E04B4988421BDADFF82881BC
:102DA00002260022434620462946FDF7ACFB0022BE
:102DB0003B46FDF701FB07468A4600224346204674
:102DC0002946FDF79AFB3A465346FDF70EFC0446AA
:102DD0000D4608E0032622462B4600203B49FDF71E
:102DE00004FC04460D4622462B4610461946FDF7C4
:102DF0008AFB8B46824602460B46FDF784FB07465C
:102E00000246334888460B4606217844FFF7BAFC51
:102E100052465B46FDF777FB82462E488B463A4684
:102E2000434605217844FFF7ADFC3A464346FDF79B
:102E30006AFB02460B46002E504659460CDAFDF757
:102E4000BBFA22462B46FDF75EFB01B022462B461D
:102E5000BDE8F04FFDF754BBFDF7AEFA22462B4616
:102E6000FDF751FB1C4A7A4402EBC603D3E9002369
:102E7000FDF743FB22462B46FDF73FFB174A7A44FA
:102E800002EBC603D3E90023FDF73AFB009A002AC0
:102E9000B8BF81F00041BDE8F88F00000000104489
:102EA0000000F07F182D4454FB21F93FFB21F9BFAE
:102EB0000000DC3F0000203E0000F33F0000F03F38
:102EC0000000E63F008003400000F83F0000F0BF34
:102ED00012340000D03300006E330000363300009F
:102EE0002DE9F04D9446CCF1000423F000464CEA65
:102EF0000404524F46EAD4749A46884621F00042B0
:102F0000BC4206D8454240EA050442EAD474BC42B9
:102F100004D9BDE8F04D6246FDF74EBAAAF140551E
:102F2000A5F17F6555EA0C040BD0022404EAAA74CB
:102F3000434DDFF810E144EAD87452EA000B04D0A4
:102F40000CE0BDE8F04DFFF7B9BE002C14BF012C1A
:102F5000BDE8F08D022C30D0032C32D056EA0C0B99
:102F60000AD0BE4220D1BA4209D126F0804622F0D2
:102F700080423346114617E000291ADB25E0DFF8CE
:102F8000C8B0FB44002C04BFDBE90001BDE8F08DB4
:102F9000012C02BFDBE9000181F00041BDE8F08DAA
:102FA000022C0AD0032C0CD0BA4212D1B8F1000F77
:102FB0000BDA23482549BDE8F08D28462449BDE8B1
:102FC000F08D28467146BDE8F08D1D482149BDE8C9
:102FD000F08D921B12153C2AC4BF19481D490EDC06
:102FE000BAF1000FBEBF12F13C0F0020014606DB14
:102FF0006246FDF7FAFA21F00041FFF75FFE002C70
:1030000008BFBDE8F08D012C04BF81F00041BDE890
:10301000F08D114A114B022C07D0FDF76EFA2A46AB
:10302000BDE8F04D0A4BFDF768BAFDF766FA2A468F
:10303000BDE8F04D064BFDF763BA00000000F07FDD
:10304000182D4454FB2109C0CA320000FB21F9BFEE
:10305000FB210940FB21F93F075C143326A6A13C64
:1030600070B504460846FDF7B1FB4FF0FF32FDF79F
:103070002BFB06460D4607492046FDF71BF9FDF7D9
:10308000A5FB32462B46FDF797F9BDE87040FDF7EA
:103090007EBB0000000034434FF0E0210A6922F0BB
:1030A00004020A610649C00800EB40020870C2EB46
:1030B000C0104FF6FF7202EAC0004880704700005F
:1030C000700000200849498848434FF0E0214861DA
:1030D0000020886101220A610A69D30701D0D20366
:1030E000FAD50861886170477000002008490978A6
:1030F00048434FF0E02148610020886101220A61C5
:103100000A69D30701D0D203FAD5086188617047F4
:103110007000002008B560B120208DF80000282044
:103120008DF8010030208DF8020038208DF8030062
:1031300004E0A32204216846FDF745F86A4604210D
:1031400040F69E2001F0E8FE01F0AEFB08BD000055
:103150003EB5044602208DF80000CA208DF801001B
:10316000E3208DF8020009208DF803006A4604214F
:10317000682001F0D1FEA3208DF80000610609D57A
:10318000C0218DF80110C8218DF80210C2218DF8E0
:10319000031005E08DF801008DF802008DF80300A2
:1031A00014F4C07F09D0C4218DF80410CC218DF80F
:1031B0000510C6218DF8061005E08DF804008DF885
:1031C00005008DF806008DF808008DF807008DF8D1
:1031D00009006A460A2140F6A72001F09DFEA007DB
:1031E0004FF0D80503D020208DF8000001E08DF8C5
:1031F00000506A46012140F6B62001F08DFEA0067F
:1032000001D5012000E0002000F08EF814F4C07F0A
:103210001ED0E0050AD5B2208DF800008B208DF875
:103220000100B6208DF802009B2009E0B0208DF847
:10323000000080208DF80100B4208DF8020090205D
:103240008DF803006A46042140F6A22001F064FED6
:10325000E1074FF40B6022D0F8218DF800106A4688
:10326000012101F059FEFA21072000F043FB07205D
:1032700000F00EFB012000F02BFB642000F0CEFBE1
:103280004FF4FA7000F0DAFBC821254800F0C8FAC4
:10329000282000F0DDFA0A2000F0EAFA05E08DF8B7
:1032A00000506A46012101F037FEA00703D5D9205E
:1032B0008DF8000001E08DF800506A46012140F2CF
:1032C0003D7001F029FE600701D5012000E00020DB
:1032D00000F04CF8E00601D5012000E00020FFF7E7
:1032E00019FF104D44F00800688101F0DDFA00205C
:1032F000A873600601D50620A87314F4C07F02D01D
:10330000A87B801DA87314F0140F02D0A87B103086
:10331000A873A00702D0A87B001DA87300203EBDA3
:1033200009E3CA02800100200EB54FF4976320B173
:1033300008A207CA8DE8070006E009A2D2E900103A
:1033400092680091CDE901026A460921184601F010
:10335000E3FD0EBDB8AAB38DB4980D355D00000035
:10336000B8AAAAAAB088C3C5C700000008B560B152
:10337000C0208DF80000C2208DF80100C4208DF817
:103380000200C6208DF8030004E08B220421684669
:10339000FCF719FF6A46042140F6982001F0BCFDB5
:1033A00001F082FA08BD0000C8234FF48062024990
:1033B00040F6F63001F05AB96E5500082DE9FF4F7E
:1033C00089B01746DDE9165200244C4E88468146E6
:1033D0002C80A246B07B694601F0F4F94FF0FF3B28
:1033E00018B158460DB0BDE8F08F708910F0140F79
:1033F0003CD0009909BA21F0FF039DF803100B435C
:103400003B6001991B1409BA21F0FF029DF80710D7
:103410005B430A437A6002999DF80B4009BA21F098
:10342000FF012143B960039C091424BA24F0FF0C66
:103430009DF80F4012144CEA040CC7F80CC04FEA78
:103440002C47494302FB023207FB071111441024A9
:10345000A1F17061B1F1007F04D901F025FAA5F85E
:1034600000A0BEE7298841F48071298042066946A0
:1034700011D50A19A41D13885BBAA8F80030538827
:103480005BBAA8F80230928852BAA8F804202A88B9
:1034900042F008022A8010F4C07F11D00A19A41D3E
:1034A00013885BBAA9F8003053885BBAA9F80230D8
:1034B000928852BAA9F804202A8842F070022A8021
:1034C000800716D00C44E07800F0C00500F03F0102
:1034D0006078C00706D0C80801F007013268491CAF
:1034E00002B190476078000703D5716809B1A80957
:1034F00088470C9800F012FB002073E78001002041
:103500002DE9FF41044603A800F066FFBDF80C005A
:103510004FEA50414FEAC0333048028902F00300BD
:10352000550754F8200001D5C0F10000C2F3C105D1
:10353000960654F8255001D5C5F10005C2F3811651
:10354000D20554F8264000D56442A0FB0367C21799
:1035500002FB037200FB0120820042EA9670A5FB89
:103560000367EA1702FB037205FB0122950045EA97
:103570009672A4FB0367E51705FB037304FB013197
:103580008B0043EA9671030E8DF80030030C8DF822
:103590000130030A8DF802308DF80300100E8DF80B
:1035A0000400100C8DF80500100A8DF80600080EB6
:1035B0008DF80800080C8DF80900080A8DF80A003B
:1035C0008DF807208DF80B106A460C214FF42570FA
:1035D00001F0A2FC04B0BDE8F081000080010020F1
:1035E00030B5044613A285B007CA8DE807004FF036
:1035F000FF35C82C16D8C820B0FBF4F1491E080AC4
:103600008DF80C008DF80D1003AA022140F216204F
:1036100001F082FC30B96A460C2140F6C12001F06D
:103620007BFC10B1284605B030BD054884810020E0
:10363000F9E70000FEF2ABC4AAF1DFDFBBAFDFDFCA
:1036400080010020F8B53149098901F0030250F8E2
:1036500022404A0701D5C4F10004C1F3C1028B0620
:1036600050F8222001D5C2F10002C1F3811350F8B5
:103670002330C80500D55B42254984FB0140850005
:1036800045EA947082FB0142A40F44EA820483FB62
:103690000121950F45EA8105010E8DF80010010CFE
:1036A0008DF80110010A8DF802108DF803006A46AA
:1036B00004214FF4747001F02FFC4FF0FF3688B9ED
:1036C000200E8DF80000200C8DF80100200A8DF8E6
:1036D00002008DF803406A4604214FF4757001F032
:1036E0001BFC08B13046F8BD280E8DF80000280CF0
:1036F0008DF80100280A8DF802008DF803506A4603
:1037000004214FF4767001F007FCF8BD8001002021
:1037100009E3CA022DE9FF4104463CA004F003037B
:10372000006802903AA0006803903AA006683AA0A8
:10373000056802A8C15C8DF80010C4F3C101425CA9
:103740008DF80120C4F38112805C8DF8020003A87B
:10375000C35C8DF80430415C8DF80510805C8DF8F9
:1037600006006A46032140F2264001F0D5FB4FF0E7
:10377000FF37E0BB01AA032140F22A4001F0CCFB55
:10378000A8BBCDE9006560070BD59DF8000040F0AF
:1037900001008DF800009DF8040040F001008DF854
:1037A0000400A0060BD59DF8010040F001008DF843
:1037B00001009DF8050040F001008DF80500E005CE
:1037C0000BD59DF8020040F001008DF802009DF835
:1037D000060040F001008DF806006A4603214FF410
:1037E000886001F099FB10B901AA032100E004E010
:1037F00040F2314001F090FB18B1384604B0BDE80A
:10380000F081064804810020F8E700004CCD6C00F0
:103810000CC92C0036567600264666008001002032
:103820004FF47A7290FBF2F008B54843010E8DF820
:103830000010010C8DF80110010A8DF802108DF8AE
:1038400003006A4604214FF4AE7001F065FB08BD29
:103850000521B0FBF1F008B5010A8DF800108DF8D4
:1038600001006A4602214FF4AD7001F055FB08BD1E
:103870000521B0FBF1F008B5010A8DF800108DF8B4
:1038800001006A4602214FF4AC7001F045FB08BD0F
:1038900008B500218DF80010C10702D030218DF845
:1038A0000010810705D59DF8001041F00C018DF83E
:1038B0000010400705D59DF8000040F003008DF88A
:1038C00000006A4601214FF4A47001F025FB08BDF9
:1038D00008B560B1042800D90420401E8DF800000E
:1038E0006A46012140F24F1001F016FB08BD01208D
:1038F000F3E700002DE9FC41054640074FF0FF3695
:103900007CD0B1F5C86F79D80846FCF7FDFE3E497A
:10391000FCF706FD074601A800F040FD9DF80400F5
:10392000022806D004280DD008282ED0102865D1F2
:1039300034E00E213846FCF733FDFCF714FF84B267
:10394000324907E00D213846FCF72AFDFCF70BFF52
:103950002F4984B23846FCF7ADFCFCF704FF210A7E
:103960008DF8001080B28DF80140010A8DF8021028
:103970008DF80300E8076C4620D0224602214FF460
:10398000EA7001F0C9FAC8BB11E00C213846FCF717
:1039900007FDFCF7E8FE84B21E49DBE70B21384641
:1039A000FCF7FEFCFCF7DFFE84B21B49D2E7A21C49
:1039B00002214FF4927001F0AFFAF8B9A8070DD5C3
:1039C0006A4602214FF4EC7001F0A6FAB0B9A21CCD
:1039D00002214FF4947001F09FFA78B9680710D56E
:1039E0006A4602214FF4EE7001F096FA30B9A21C3B
:1039F00002214FF4967001F08FFA10B13046BDE805
:103A0000FC810020FBE70000000048430000404626
:103A10000000C045000040450000C0440521B0FB47
:103A2000F1F008B5010A8DF800108DF801006A4622
:103A300002214FF4EF7001F06FFA08BD0521B0FBD1
:103A4000F1F008B5010A8DF800108DF801006A4602
:103A500002214FF4ED7001F05FFA08BD034AC1B2D4
:103A60001180111F0A885206FCD5704704380140A6
:103A70002DE9FE430646264801AB042240680D218D
:103A8000007800F041FA10B10720BDE8FE839DF8F0
:103A900004101C2000EAD1029DF80710DFF8749092
:103AA000C1F301131A438DF800209DF80520C1F3DE
:103AB000810300EAD2021A438DF801209DF8062006
:103AC00001F0030100EAD20008430024124F8DF8F0
:103AD0000200A0466D46285D10B146F824900AE029
:103AE00046F824800DE000BF56F824003946FCF764
:103AF000E1FB46F82400285D401E10F0FF00285529
:103B0000F2D1641CE4B2032CE5D30020BDE7000031
:103B1000740000207B14AE3E1D5A843F70470000A5
:103B20002DE9FE4F05460120C14E8DF800004FF0F3
:103B300000088DF8018030680C461746817C70685B
:103B40006B460222007800F017FA4FF0FF3A002887
:103B50007AD1C820FFF7B6FA8DF8008030686B463E
:103B60000122C17B7068007800F006FA0028EFD1CE
:103B700030686B46012241797068007800F0FCF9EA
:103B80000028E5D130686B460122817C706800789E
:103B900000F0F2F90028DBD130686B460122C17DCC
:103BA0007068007800F0E8F90028D1D130686B46E1
:103BB000012201797068007800F0DEF90028C7D191
:103BC0004FF00C098DF8009030686B4601220179A6
:103BD0007068007800F0D0F9002835D10F20FFF789
:103BE00071FAB06A6B460122407A8DF800003068A5
:103BF00081787068007800F0BFF9002824D1B06A9D
:103C00006B460122007A8DF80000306841787068B8
:103C1000007800F0B1F9002873D1B06A807A0FB152
:103C200040F0E0008DF8000030686B460122817999
:103C30007068007800F0A0F9002862D12FB1B06A56
:103C4000C07A40F0E00001E04AE018208DF8000062
:103C500030686B460122C1797068007800F08CF9F9
:103C6000F0BB17B1C820FFF72DFA40208DF80000F7
:103C700030686B46012201797068007800F07CF9A9
:103C800070BB78208DF8000030686B4601224179C6
:103C90007068007800F070F910BB3220FFF712FA5C
:103CA0008DF80080306847466B4641797068012284
:103CB000007800F061F998B931687068B046897A87
:103CC00000786B46022200F01FF948B9BDF80000E9
:103CD000AF6040BAB0FBF9F06F60C6B22F6000E091
:103CE0000FE0A76067602760002739E0D8F8001070
:103CF000D8F804006B46C97A00780C2200F004F969
:103D000010B15046BDE8FE8FBDF80000236840BAF0
:103D100002B2BDF80200BDF804101A44226040BA95
:103D2000626800B21044606049BAA06809B20844F1
:103D3000A060BDF806002B6840BA02B2BDF80800CA
:103D40001A4440BA01B2BDF80A002A606A6840BA53
:103D500011446960A96800B208447F1CFFB2A860E2
:103D6000B742C3D328688322C117090441EA10412E
:103D700000040023FCF7FAF932460023FCF7F6F9B9
:103D8000286068688322C117090441EA10410004D1
:103D90000023FCF7EBF932460023FCF7E7F96860F3
:103DA000A8688322C117090441EA104100040023D6
:103DB000FCF7DCF932460023FCF7D8F9A86020684C
:103DC0004FF40065C117090441EA104100042A4676
:103DD0000023FCF7CBF932460023FCF7C7F920603B
:103DE00060682A46C117090441EA10410004002313
:103DF000FCF7BCF932460023FCF7B8F96060A06814
:103E00002A46C117090441EA104100040023FCF7C7
:103E1000ADF932460023FCF7A9F9A060002802DDC5
:103E2000A0F5803001E000F58030A060002069E757
:103E3000740000202DE9F84F81462E488846002561
:103E400040686B46032200780D2100F05DF810B148
:103E50000720BDE8F88F9DF80000002400F01F0047
:103E60008DF800009DF801006FF00F0B00F01F00AF
:103E70008DF801009DF802006E4600F01F008DF8DD
:103E800002004FF0010A00BF59F8241058F824002E
:103E9000081A00D54042FCF72EFC5946FCF780FA80
:103EA0000746305DC0B1144802E01449FCF702FA3D
:103EB000315D491E11F0FF013155F6D101463846FA
:103EC000FCF72EFA4FF07E51FCF7EEF90C4920F08A
:103ED0000040884205DC07E00A483844B0F1D97F49
:103EE00002D90AFA04F00543641C032CCCDB2846F3
:103EF000AFE70000740000200000C84154E3853F94
:103F0000295C0F3E0000E0BE2DE9F0411D4614463D
:103F10000F460646FDF790FBB0B17006000EFDF7A8
:103F20005BFBFDF7CDFB90B13846FDF755FBFDF788
:103F3000C7FBFDF781FB012000EB4600C0B2FDF797
:103F40004BFBFDF7BDFB0FE00120BDE8F081FDF765
:103F50009BFBF9E7012C0DD05FF00100FDF706FB9C
:103F6000641E05F8010BE4B2002CF3D1FDF78CFBC5
:103F70000020EAE70020F1E72DE9F0411E46154652
:103F80000F460446FDF758FB68B16006000EFDF7CA
:103F900023FBFDF795FB48B13846FDF71DFBFDF708
:103FA0008FFB00240CE00120BDE8F081FDF76CFBE5
:103FB000F9E7305DFDF710FBFDF782FB10B1641CE3
:103FC000AC42F6DBFDF760FB0020EDE790F9001056
:103FD000002902DD4FF00000704702DA4FF00400C4
:103FE000704790F90110002902DD4FF00100704781
:103FF00002DA4FF00500704790F90200002802DD58
:104000004FF00200704702DA4FF0060070474FF0A1
:10401000070070472DE9F04723480025234E00781C
:10402000234F012401281CD1DFF88880202140463D
:10403000FDF7CBF8DFF880904FF4807AA8B14021EB
:104040004046FDF7C2F880B180214046FDF7BDF83B
:1040500058B151464046FDF7B8F830B199F8000024
:1040600018B135703C70BDE8F0871448007803281B
:1040700001D334703D70202145464046FDF7A5F838
:1040800078B140212846FDF7A0F850B1802128469C
:10409000FDF79BF828B151462846FDF796F8002811
:1040A000E1D189F80040DEE7140000203000002054
:1040B0001A00002000200140080000200600002017
:1040C00038B501214FF4F470FDF752FF4FF48074BE
:1040D000ADF8004010208DF8030003201E4D8DF830
:1040E000020069462846FDF721F821462846FDF7DB
:1040F00073F80420194CADF8000069462046FDF71E
:1041000015F804212046FDF767F87E20144CADF821
:10411000000069462046FDF709F87E212046FDF79C
:104120005DF8104D4FF47044ADF8004069462846E4
:10413000FCF7FCFF21462846FDF74EF83F200A4CCD
:10414000ADF8000069462046FCF7F0FF3F2120460D
:10415000FDF742F838BD0000000C01400018014096
:104160000014014000200140001C0140FEF740F80F
:104170004820FEF791FF01F0D1F84FF41651482086
:1041800001F06AF80220FDF739FB0120FDF736FB4C
:10419000FFF796FFFDF746FBFCF79CFD002140F280
:1041A000CF70FDF71DFEFCF7FDFEFCF765FFFDF788
:1041B000ABF9FDF7A5FDFCF7E3FD5E4D4021284678
:1041C000FDF703F8044620212846FCF7FEFF0440D3
:1041D00080212846FCF7F9FF0440A9152846FCF782
:1041E000F4FF0442544F554E4FF000004FF00105CC
:1041F0001FD00446C7F89801C6F888514FF4FA70EA
:10420000FEF760FFC7F89851C6F8884141F61F4194
:104210003120FEF785F84A4E4A4F0020FDF722FB79
:10422000002864D002284BD0032850D004285ED147
:1042300055E0C7F894014FF47A742046FEF742FF28
:104240002046FEF73FFF2046FEF73CFF2046FEF7E4
:1042500039FF2046FEF736FF2046FEF733FF2046A3
:10426000FEF730FF2046FEF72DFF2046FEF72AFF1F
:104270002046FEF727FF2046FEF724FF2046FEF7E4
:1042800021FF2046FEF71EFF2046FEF71BFF2046BB
:10429000FEF718FF2046FEF715FF2046FEF712FF37
:1042A000C7F894514FF49674D6F8880130B10020C5
:1042B000C6F888012046FEF705FFF5E70120F7E77D
:1042C000307810B10020307011E00120FBE7B078A9
:1042D000401CC0B2B070032809D9B47007E07078F0
:1042E000401CC0B27070032801D9757010E070785E
:1042F00001280DD0022812D003288ED14FF4F97076
:10430000B080C7F88C41C7F89041C7F8945184E752
:10431000A620B080C7F88C51C7F8904106E04FF452
:10432000A670B080C7F88C41C7F89051C7F8944187
:1043300073E7000000200140008022420000234279
:1043400008000020008023422DE9F041124C20F0AB
:104350000101002594F8240010B10020BDE8F0818F
:10436000A07A4FF0FF3668B10840277C207488425D
:1043700000D0354641B1012000F06EFE00F094FA05
:1043800038B127743046E9E7207D00B1012000F004
:1043900063FE2846E2E70000740000200D494A7AD7
:1043A00042B1012A08D0022A0FD0032A0FD04FF0C1
:1043B000FF307047022200E004220270C97C11B174
:1043C0001106C90D0170002070470822F5E7102280
:1043D000F3E70000740000200F494A7A42B1012A35
:1043E00009D0022A11D0032A12D04FF0FF307047B3
:1043F0004FF4804201E041F69C720280C97C11B109
:10440000C2F34E010180002070474FF48052F4E760
:104410004FF40062F1E70000740000200B49097AB4
:1044200039B1012907D002290AD003290BD0002174
:1044300003E0FA2101E04FF4FA7101800020704797
:104440004FF47A71F9E74FF4FA61F6E7740000204F
:104450000A49097A41B1012908D002290AD0032961
:104460000AD04FF0FF307047054900E00549016070
:10447000002070470449FAE70449F8E77400002077
:10448000000003430000834233330342333383414C
:104490000C49C97A072913D2DFE801F01204060A91
:1044A0000C0E1000BC2100E062210180002070474A
:1044B0002A21FAE71421F8E70A21F6E70521F4E7B3
:1044C0000021F2E774000020054991F8242012B180
:1044D0004FF0FF307047C98901800020704700000D
:1044E000740000202DE9FC414C4C80208DF8000028
:1044F00020686B460122817C60680078FFF73CFDF4
:104500004FF0FF37002832D16420FEF7DBFD002595
:104510008DF8005020686B460122817C606800782D
:10452000FFF72AFD002871D120686B460622817DA5
:1045300060680078FFF7E8FC002867D19DF8050067
:104540009DF80310C007400F01F0010140EA41014E
:104550009DF801004FF0010600F00100014309D071
:10456000012905D0022916D02DA0FEF7E7F84DE06D
:10457000E67411E020686B460122C178606800781B
:10458000FFF7C2FC002841D19DF8000010F00F0099
:1045900020D0042822D0E574FF2004F80A0F4FF63B
:1045A000FF7104F8020C04F8010C6070A180A07186
:1045B0002072A67026766576E572A572E5602561A3
:1045C0006561A576E576A5834FF4FA6000F06AFB95
:1045D000E0B907E01C48FEF7B1F817E01BA0FEF7B2
:1045E000ADF8C5E7022000F07FFA78B92A2000F084
:1045F000C1FB58B9322000F0F3FB38B90020FFF7B7
:10460000A3FE18B9002000F0A3FA10B13846BDE8A7
:10461000FC81002000F024FC0020F8E7740000205A
:10462000556E737570706F7274656420736F667405
:10463000776172652070726F64756374207265763D
:104640002025642E0A0000002055000848616C6691
:104650002073656E7369746976697479207061720C
:104660007420666F756E642E0D0A00002DE9FF4FF1
:10467000DFF89480064685B098F8250015460F4669
:104680004FF0FF39B0BBAFB3002420E0301B10283F
:1046900000DD102080B283463A190146924620463A
:1046A00000F03AFC30BB6A465946204600F0D2F88A
:1046B00000BB50465A466946FBF797FD20B16FF0A4
:1046C000010009B0BDE8F08F04EB0B0084B2B442E6
:1046D000DCD3280A8DF810008DF81150D8F80000AE
:1046E000444604AB817ED8F8040002220078FFF72C
:1046F00043FC08B14846E4E7012084F82500089807
:10470000E0840020DDE70000740000202DE9F8437C
:1047100005464FF0FF39282844D80727284C0026A3
:104720007DB1012000F0F4FA20208DF800004FF058
:104730000108012D17D0052D18D88DF8018005200E
:104740001FE0002000F0E4FA8DF800608DF80170A1
:1047500020686B460222817C60680078FFF70CFCC1
:1047600000BB267529E08DF80160E8E7142D04D818
:1047700002208DF801000A2003E003208DF80100DB
:10478000142000F0F7FA9DF801006B4607EB80104B
:104790008DF8010020680222817C60680078FFF7B4
:1047A000EBFB10B14846BDE8F8830820A0722673E1
:1047B00084F814800020FFF7C7FD0020F3E7000015
:1047C000740000202DE9F843214C0646174694F862
:1047D000240089464FF0FF3890B3A07A80B3206858
:1047E0006B460222817A60680078FFF78DFB38BB48
:1047F000BDF8000045BAB54202D2002038701FE073
:1048000060684188B5EB510F11D9216800786B467B
:10481000497C0122FFF778FB90B99DF80000C006A3
:1048200005D500F041F86FF00100BDE8F88320687D
:10483000F2B24B46C17A60680078FFF765FB08B1B9
:104840004046F2E7B5FBF6F0401E38700020ECE77A
:1048500074000020F8B516000D464FF0FF371FD04A
:10486000104CA17AE1B1010A8DF80010C0B28DF8A8
:104870000100411960684289914211D8216800788D
:104880006B46097E0222FFF777FB48B92068EAB23F
:104890003346417D60680078FFF736FB002800D082
:1048A0003846F8BD74000020F8B5524C4FF0FF3682
:1048B000A07A00287CD000258DF8005020686B4637
:1048C0000122C17B60680078FFF756FB00286FD19A
:1048D00020686B460122417960680078FFF74CFB45
:1048E000002865D120686B46012201796068007854
:1048F000FFF742FB00287AD194F82400C0B30C20C3
:104900008DF8000020686B4601220179606800780C
:10491000FFF732FB00286AD1C0208DF80000A07A92
:10492000C00702D0E0208DF8000020686B4601220D
:10493000017960680078FFF71FFB002857D1607C81
:1049400018B102208DF8000001E08DF800502068B9
:104950006B460122C17B60680078FFF70DFB38BB16
:104960008DF8005020686B4641796068007839E026
:10497000FFE704208DF8000020686B4601220179D2
:1049800060680078FFF7F8FA90B9A07C88B9A07A3F
:10499000C0070ED05FF060008DF8000020686B4605
:1049A0000122017960680078FFF7E6FA00B902E0B9
:1049B0001DE04020F0E7607C18B101208DF8000078
:1049C00001E08DF8005020686B460122C17B6068D1
:1049D0000078FFF7D1FA50B92068064B417960683A
:1049E000103300780122FFF7C7FA002800D03046C4
:1049F000F8BD0000740000202DE9F047394C8246D4
:104A00008AB094F824000F4620B1002000F00EF97F
:104A1000012600E0002607A8FFF700FD06A8FFF723
:104A2000BDFC09A8FFF734FD08A8FFF74DFD94F879
:104A30000A9094F810800025002239465046FFF76E
:104A40006FF810B16D1C022DF6DB022D1AD0002577
:104A5000012203A96846FFF763F810B16D1C022D0F
:104A6000F6DB022D0ED003A93846FDF7A9FFC7B229
:104A700069465046FFF7DEF910F0FF0F4FF00005D2
:104A800002D002E0002503E001250FB945F0020540
:104A9000FF2020726072E0724FF6FF71E181A07218
:104AA000207401202073BDF81C0000F0FBF89DF875
:104AB000180000F019F8BDF8240000F05BF9BDF80B
:104AC000200000F08DF9484600F0CAF94046FFF793
:104AD0003BFC16B1012000F0A9F80AB02846BDE859
:104AE000F08700007400002038B5184C4FF0FF35F7
:104AF000A17A19B3022806D0042806D008280ED0BF
:104B000010281BD10DE0002000E008208DF80000E7
:104B1000607A9DF80010B0EBD10F04D005E01020B2
:104B2000F4E71820F2E7002038BD20686B46012228
:104B3000C17960680078FFF71FFA08B1284638BDD0
:104B40009DF80000C0086072EDE7000074000020CE
:104B5000F8B5354C0546A07CA84201D10020F8BD2F
:104B600031484FF0FF366B46D0E900104FF001029C
:104B70000979007835B3FFF7C7F970BB9DF80000DD
:104B80006B4620F020008DF800002068012201799A
:104B900060680078FFF7F0F9F8B90320FEF792FAA1
:104BA00002208DF8000094F8220078B382202BE0D8
:104BB00020686B460122017D60680078FFF7DCF910
:104BC00058B92EE0FFF7A0F938B9A07AC0079DF8D0
:104BD000000003D040F0200002E00CE020F02000B4
:104BE0008DF8000020686B4601220179606800782A
:104BF000FFF7C2F908B13046F8BD0320FEF762FAAC
:104C000094F8220000B180208DF8000094F8230071
:104C10000028CDD09DF8000040F030008DF8000055
:104C2000C6E7A5749AE700007400002038B51C4C54
:104C300094F8241081421DD0002500B394F825007B
:104C4000D0B1002000F008FA0020FFF781FFE08CCF
:104C500000F0C6F88DF8005060686B4601220078BD
:104C60002321FFF789F9012084F8240000F0F4F9EA
:104C7000FFF71AFE002038BD4FF0FF3038BD00208E
:104C800000F0EAF9207C8DF8000060686B46012294
:104C900000782321FFF770F984F82450E8E700003A
:104CA0007400002038B5194C4FF0FF35A17A31B3AC
:104CB000FA2809D0B0F5FA7F08D0B0F57A7F0FD086
:104CC000B0F5FA6F1BD10DE0002000E008208DF850
:104CD0000000207A9DF80010B0EBD10F04D005E061
:104CE0001020F4E71820F2E7002038BD20686B465A
:104CF0000122817960680078FFF73EF908B1284603
:104D000038BD9DF80000C0082072EDE77400002057
:104D100038B5174C054694F82300A84201D100206D
:104D200038BD0DB1302000E000208DF80000A07CDF
:104D300028B19DF8000040F002008DF8000094F8C2
:104D4000220028B19DF8000040F080008DF800009E
:104D500020686B460122017D60680078FFF70CF93E
:104D600010B14FF0FF3038BD84F82350D7E7000072
:104D70007400002038B5194C4FF0FF35A17A31B3DB
:104D8000BC2801D3012010E0622801D302200CE0EE
:104D90002A2801D3032008E0142801D3042004E0CA
:104DA0000A2801D3052000E006208DF80000E07AF3
:104DB0009DF80010884201D1002038BD20686B4664
:104DC0000122817860680078FFF7D6F808B128469C
:104DD00038BD9DF80000E072EEE70000740000208E
:104DE000F8B51E4D04464FF0FF37A87A48B395F842
:104DF000240030BB287D4FF47A7648B164B1282C6A
:104E000003D8E0B2FFF782FC26E00020FFF77EFC2B
:104E1000042C05D2042406E00020FFF777FCF9E714
:104E2000B44200D93446B6FBF4F0401E8DF80000C1
:104E300028686B460122417868680078FFF79CF883
:104E400008B13846F8BD9DF80000401CB6FBF0F0F4
:104E5000E8814008FFF78EFF0020F8BD74000020B5
:104E6000F8B5054610F0700F4FF0000601D0012094
:104E700004E015B18DF8006002E040208DF80000DC
:104E8000244C6B4601222068817C60680078FFF723
:104E900073F84FF0FF3760BB9DF8000020F0400032
:104EA00020738DF80060680602D404208DF800009D
:104EB000A80605D49DF8000040F002008DF800001F
:104EC000E80605D49DF8000040F001008DF80000D0
:104ED000280705D49DF8000040F038008DF8000048
:104EE00020686B460122C17C60680078FFF744F8B7
:104EF00010B1A6723846F8BD25B1082D02D00020A9
:104F0000FFF706FFA57226753220FEF7DBF80020BA
:104F1000F8BD000074000020F8B516000D464FF0F3
:104F2000FF371FD0104CA17AE1B1010A8DF80010B3
:104F3000C0B28DF80100411960684289914211D8D0
:104F4000216800786B46097E0222FFF715F848B900
:104F50002068EAB23346417D60680078FFF70CF8BC
:104F6000002800D03846F8BD74000020002800DA80
:104F7000404270470C480188002202800307988C49
:104F80009A84DB13094A984202D9A0F57D40E8389B
:104F900010600748994202D9A1F57D41E8390160C6
:104FA000106840421060704724080040380000201C
:104FB0003C00002010B588B0694604A8FFF71CFD2E
:104FC000072835D107A8FFF743FA0498FBF793FBAE
:104FD00007990C46FBF76EF9FBF7ACFB04900598BC
:104FE000FBF789FB2146FBF765F9FBF7A3FB05906F
:104FF0000698FBF780FB2146FBF75CF9FBF79AFB71
:10500000069004A8FEF71EFB03A8FFF7E5F9BDF81C
:105010000C0000994143009101994143019102998B
:10502000414368460291FEF76BFA02A0FDF786FB4A
:1050300008B010BD73657474696E6720626961732E
:105040002073756363657366756C6C79202E2E2EE4
:105050002E2E2E0D0A000000F8B5144C01462246F3
:1050600094F82460D2E9000200235D1E56B179B1A4
:10507000022111E0C17B10786B460122FEF77CFF14
:1050800068B90EE0A67A56B111B1617C61B902E04F
:105090008DF80030EEE701218DF80010EAE7284690
:1050A000F8BD9DF8000060740020F8BD7400002079
:1050B0002DE9F04106460F46FBF7D6FC04000D46ED
:1050C00018BF0120284320F00040C0F17F6000F1AC
:1050D000E040C00F0FD0002E14BF01200020384345
:1050E00020F00040C0F17F6000F1E040C00F04BF3D
:1050F0000120FDF7B5FB20462946BDE8F081000000
:105100002DE9F05F9346464A40F2DC53DFF8148104
:105110001278DFF814A1B3FBF2F598F8002000260E
:10512000424C4FF4E16705F548754FF00309012A39
:1051300007D09AF80020012A03D0C4E90996266214
:1051400020E0A26A521CA262012A01D0206A03E078
:105150000844FFF70BFF20624FF4FA6191FBF0F077
:105160006062032802DAC4F8249003E00A2801DD13
:105170000A20606298F8000001281CD09AF800000C
:1051800001281CD03046A661A84200DDA561A169B6
:105190006842814200DAA061254826490068096812
:1051A000431A2548016825480068FDF7DDF8002806
:1051B000E06A09D014E0616AA069084402E0616A0B
:1051C000A069401AA061DFE7A1691844401A1C4990
:1051D000B1F9001008441B49B1F90010401AE0620F
:1051E000B84201DDE76203E01749884200DAE16274
:1051F00016495846FBF794F8FBF7E8FA05460E46C1
:10520000E06AFBF786FA124A124BFBF77CF92A4652
:105210003346FBF7D1F8FBF7BAFAE061BDE8F09F3F
:105220001900002033000020340000203C01002041
:10523000380000203C000020480000204C000020E6
:105240000200002004000020F8F8FFFF0000704278
:105250009A9999999999D93F70B505460801FBF734
:1052600053FA0446294845436808FBF74DFA21469E
:10527000FBF756F80546FBF776FA84B22046FBF7B3
:1052800043FA2946FBF713F80421FBF789F8FBF7EB
:105290006AFA4FF6FF7101EA04110A181C48816985
:1052A00041F008018161C16941F48021C16119495E
:1052B0000B6823F47F430B600B6843F40B430B60D4
:1052C000144908310B6843F480630B60016941F4B1
:1052D00080210161016921F4802101610E48028071
:1052E000001D018842F20C0211430180018841F443
:1052F00080710180018841F020010180BDE870408B
:105300000223272203210120FCF73CBD40420F006D
:1053100000100240040C01400848004010B586B05F
:10532000012144F20400FCF723FE4FF40070ADF8B5
:10533000100018208DF813000320214C8DF8120066
:1053400004A92046FBF7F2FE2015ADF8100004205A
:105350008DF8130004A92046FBF7E8FE4FF4E13076
:1053600000900020ADF80400ADF80600ADF808008C
:10537000ADF80C000C20134CADF80A00694620462D
:10538000FDF72CF940212046FDF7E4F8012240F218
:1053900025512046FDF70AF901212046FDF7DDF8E9
:1053A00025208DF8140001208DF8150007218DF8B7
:1053B00016108DF8170005A8FCF760FD06B010BDAB
:1053C0000008014000380140044801888906FCD5E6
:1053D0000248001D0088C0B270470000003801403C
:1053E0002DE9F047304A314C4FF4E16712784FF025
:1053F0000009012A2FD02E4A1278012A2DD0C4F894
:1054000010904518A560E068FBF783F9294E2A4BF8
:105410003246FBF778F8FBF7BAF980462846FBF7E7
:1054200078F93246254BFBF76EF805460E464046A6
:10543000FBF76FF92A463346FAF7BEFFFBF7A7F9E9
:105440001F4B204DE06019682868FCF78DFF00288D
:10545000606906D00AE01C4A01E04FF4FA7222614A
:10546000CFE7E16808442169401A60611749B842F2
:1054700001D9676101E0884200D26161606914214D
:1054800090FBF1F0E16801EB810100EB410060600D
:1054900019682868FCF768FF012801D1C4F8149046
:1054A0006068BDE8F0870000310000203C0100206A
:1054B000320000209A9999999999E93F9999C93FA1
:1054C000480000204C0000200CFEFFFFF8F8FFFF12
:1054D0006800000476005401F7FD000175191A0CEC
:1054E0006A231B1C1F207274433B4138393A6B6C92
:1054F000376F06246D6E7000830000000008000006
:105500000001001832000500000020410000D242D6
:10551000295C0F3E9A99993E3333733F295C0F3EC5
:1055200050726F6475637420494420726561642011
:105530006173203020696E646963617465732064EF
:105540006576696365206973206569746865722092
:10555000696E636F6D70617469626C65206F722033
:10556000616E204D5055333035302E0D0A0000004D
:10557000700000000024000000020003000000652D
:105580000054FFEF0000FA80000B12820001030CB0
:1055900030C30E8C8CE914D5400213710F8E388302
:1055A000F8833000F883258EF8833000F883FFFFFE
:1055B000FFFF0FFEA9D6240004001A8279A1000083
:1055C000003CFFFF00000010000038836FA2003E87
:1055D00003304000000002CAE3093E8000002000C2
:1055E0000000000000004000000060000000000C0F
:1055F0000000000C186E000006920A16C0DFFFFFC4
:105600000256FD8CD377FFE1C496E0C5BEAA000028
:105610000000FFFF0B2B000016570000035940004D
:10562000000000001DFA00026C1D000000003FFF9A
:10563000DFEB003EB3B6000D227800002F3C0000E7
:105640000000001942B5000039A20000B365D90E70
:105650009FC91DCF4C3430000000500000003BB605
:105660007AE80064000000C800000000000010009C
:1056700000001000FA921000225E000D229F00012F
:10568000000000320000FF46000063D4000010005C
:10569000000004D6000004CC000004CC0000000090
:1056A0001072000000400000000000000000000632
:1056B0000002000500070000000000640000000078
:1056C000000000000005000500640020000000004C
:1056D0000000000000000000400000000300000087
:1056E0000032F8980000FF650000830F0000FF9B68
:1056F000FC000000000000000000000000000000AE
:105700000000000000000000000000000000000099
:105710000000000000000000000000001000400039
:105720000000000000060000B26A00020000000154
:10573000FB830068000000D9FC007CF1FF830000BF
:10574000000000650000006403E800640028000019
:1057500000250000000016A000000000100000005E
:105760001000002F0000000001F4000010000028CD
:105770000000FFFF4581FFFFFA72000000000000FB
:105780000000004400050005BAC6004778A20000EA
:1057900000010000000000000600000000140000EE
:1057A000254D002F706D000005AE000C02D00000EA
:1057B0000000000000000000000000000000001BCE
:1057C0000000000000000000000000000000006475
:1057D00000000008000000000000000000000000C1
:1057E00000000000000000000000000000000000B9
:1057F00000000000000000000000000000000000A9
:105800000000000000000000000000000000000098
:105810000000000000000000000000000000000088
:105820000000000000000000000000000000001B5D
:1058300000000000000000000000000E000E00004C
:105840000AC70004000000000032FFFFFF9C0000B8
:105850000B2B000000020000000100000064FFE5C7
:105860000000000000000000000000000000000038
:105870000001000000000001000000000000000125
:1058800080000001800000018000002426D3000079
:10589000000000000000000600100096003C000020
:1058A00000000000000000000000000000000C0AE2
:1058B0004E68CDCF770950166759C619CE820000C1
:1058C00000000000000000000000000000000000D8
:1058D00000000000000017D7840003000000000053
:1058E000000000000000C7938F9D1E1B1C190000C4
:1058F00000000000000000000000000000000000A8
:1059000000000000000002031885000040000000B5
:105910000003000000030000000000000000400041
:105920000000000000000000000000000000000077
:105930000000000000000000000000000000000067
:105940000000000000000000000000000000000057
:105950000000677DDF7E72902E554CF6E6880000D1
:105960000000000000000000000000000000D8DC83
:10597000B4B8B0D8B9ABF3F8FAB3B7BB8E9EAEF1FA
:1059800032F51BF1B4B8B08097F1A9DFDFDFAADFF1
:10599000DFDFF2AAC5CDC7A90CC92C97F1A98926CA
:1059A0004666B28999A92D557DB0B08AA89636561B
:1059B00076F1BAA3B4B280C0B8A89711B28398BAEE
:1059C000A3F0240844106418B2B9B49883F1A32951
:1059D000557DBAB5B1A38393F0002850F5B2B6AAAD
:1059E000839328547CF1B9A3829361BAA2DADEDFF3
:1059F000DB819AB9AEF5606870F1DABAA2DFD9BA84
:105A0000A2FAB9A38292DB31BAA2D9BAA2F8DF8591
:105A1000A4D0C1BBAD83C2C5C7B8A2DFDFDFBAA0C7
:105A2000DFDFDFD8D8F1B8AAB38DB4980D355DB2F9
:105A3000B6BAAF8C96198F9FA70E161EB49AB8AA45
:105A4000872C547CBAA4B08AB691325676B284942C
:105A5000A4C808CDD8B8B4B0F19982A82D557D98C6
:105A6000A80E161EA22C547C92A4F02C5078F1841F
:105A7000A898C4CDFCD80DDBA8FC2DF3D9BAA6F8A4
:105A8000DABAA6DED8BAB2B68696A6D0F3C841DA9C
:105A9000A6C8F8D8B0B4B882A892F52C548898F16A
:105AA00035D9F418D8F1A2D0F8F9A884D9C7DFF80D
:105AB000F883C5DADF69DF83C1D8F40114F1A88265
:105AC0004EA884F311D182F5D992289788F109F470
:105AD0001C1CD884A8F3C0F9D1D99782F129F40D00
